{
  "address": "0x2ada2d985Ce69b467d2D8372494Df021BEDfdbf2",
  "abi": [
    {
      "inputs": [
        {
          "internalType": "contract IERC20",
          "name": "_collateralToken",
          "type": "address"
        },
        {
          "internalType": "contract UnderwriterToken",
          "name": "_underwriterToken",
          "type": "address"
        },
        {
          "internalType": "address",
          "name": "rewardsManager",
          "type": "address"
        }
      ],
      "stateMutability": "nonpayable",
      "type": "constructor"
    },
    {
      "anonymous": false,
      "inputs": [
        {
          "indexed": false,
          "internalType": "address",
          "name": "newAssetPool",
          "type": "address"
        }
      ],
      "name": "ApprovedAssetPoolUpgrade",
      "type": "event"
    },
    {
      "anonymous": false,
      "inputs": [
        {
          "indexed": true,
          "internalType": "address",
          "name": "underwriter",
          "type": "address"
        },
        {
          "indexed": false,
          "internalType": "uint256",
          "name": "collateralAmount",
          "type": "uint256"
        },
        {
          "indexed": false,
          "internalType": "uint256",
          "name": "covAmount",
          "type": "uint256"
        },
        {
          "indexed": false,
          "internalType": "uint256",
          "name": "timestamp",
          "type": "uint256"
        }
      ],
      "name": "AssetPoolUpgraded",
      "type": "event"
    },
    {
      "anonymous": false,
      "inputs": [
        {
          "indexed": false,
          "internalType": "address",
          "name": "cancelledAssetPool",
          "type": "address"
        }
      ],
      "name": "CancelledAssetPoolUpgrade",
      "type": "event"
    },
    {
      "anonymous": false,
      "inputs": [
        {
          "indexed": true,
          "internalType": "address",
          "name": "recipient",
          "type": "address"
        },
        {
          "indexed": false,
          "internalType": "uint256",
          "name": "amount",
          "type": "uint256"
        },
        {
          "indexed": false,
          "internalType": "uint256",
          "name": "timestamp",
          "type": "uint256"
        }
      ],
      "name": "CoverageClaimed",
      "type": "event"
    },
    {
      "anonymous": false,
      "inputs": [
        {
          "indexed": true,
          "internalType": "address",
          "name": "underwriter",
          "type": "address"
        },
        {
          "indexed": false,
          "internalType": "uint256",
          "name": "amount",
          "type": "uint256"
        },
        {
          "indexed": false,
          "internalType": "uint256",
          "name": "covAmount",
          "type": "uint256"
        }
      ],
      "name": "Deposited",
      "type": "event"
    },
    {
      "anonymous": false,
      "inputs": [
        {
          "indexed": true,
          "internalType": "address",
          "name": "previousOwner",
          "type": "address"
        },
        {
          "indexed": true,
          "internalType": "address",
          "name": "newOwner",
          "type": "address"
        }
      ],
      "name": "OwnershipTransferred",
      "type": "event"
    },
    {
      "anonymous": false,
      "inputs": [
        {
          "indexed": true,
          "internalType": "address",
          "name": "underwriter",
          "type": "address"
        },
        {
          "indexed": false,
          "internalType": "uint256",
          "name": "amount",
          "type": "uint256"
        },
        {
          "indexed": false,
          "internalType": "uint256",
          "name": "covAmount",
          "type": "uint256"
        },
        {
          "indexed": false,
          "internalType": "uint256",
          "name": "timestamp",
          "type": "uint256"
        }
      ],
      "name": "WithdrawalCompleted",
      "type": "event"
    },
    {
      "anonymous": false,
      "inputs": [
        {
          "indexed": false,
          "internalType": "uint256",
          "name": "withdrawalDelay",
          "type": "uint256"
        },
        {
          "indexed": false,
          "internalType": "uint256",
          "name": "timestamp",
          "type": "uint256"
        }
      ],
      "name": "WithdrawalDelayUpdateStarted",
      "type": "event"
    },
    {
      "anonymous": false,
      "inputs": [
        {
          "indexed": false,
          "internalType": "uint256",
          "name": "withdrawalDelay",
          "type": "uint256"
        }
      ],
      "name": "WithdrawalDelayUpdated",
      "type": "event"
    },
    {
      "anonymous": false,
      "inputs": [
        {
          "indexed": true,
          "internalType": "address",
          "name": "underwriter",
          "type": "address"
        },
        {
          "indexed": false,
          "internalType": "uint256",
          "name": "covAmount",
          "type": "uint256"
        },
        {
          "indexed": false,
          "internalType": "uint256",
          "name": "timestamp",
          "type": "uint256"
        }
      ],
      "name": "WithdrawalInitiated",
      "type": "event"
    },
    {
      "anonymous": false,
      "inputs": [
        {
          "indexed": false,
          "internalType": "uint256",
          "name": "withdrawalTimeout",
          "type": "uint256"
        },
        {
          "indexed": false,
          "internalType": "uint256",
          "name": "timestamp",
          "type": "uint256"
        }
      ],
      "name": "WithdrawalTimeoutUpdateStarted",
      "type": "event"
    },
    {
      "anonymous": false,
      "inputs": [
        {
          "indexed": false,
          "internalType": "uint256",
          "name": "withdrawalTimeout",
          "type": "uint256"
        }
      ],
      "name": "WithdrawalTimeoutUpdated",
      "type": "event"
    },
    {
      "inputs": [
        {
          "internalType": "contract IAssetPoolUpgrade",
          "name": "_newAssetPool",
          "type": "address"
        }
      ],
      "name": "approveNewAssetPoolUpgrade",
      "outputs": [],
      "stateMutability": "nonpayable",
      "type": "function"
    },
    {
      "inputs": [
        {
          "internalType": "uint256",
          "name": "_newWithdrawalDelay",
          "type": "uint256"
        }
      ],
      "name": "beginWithdrawalDelayUpdate",
      "outputs": [],
      "stateMutability": "nonpayable",
      "type": "function"
    },
    {
      "inputs": [
        {
          "internalType": "uint256",
          "name": "_newWithdrawalTimeout",
          "type": "uint256"
        }
      ],
      "name": "beginWithdrawalTimeoutUpdate",
      "outputs": [],
      "stateMutability": "nonpayable",
      "type": "function"
    },
    {
      "inputs": [],
      "name": "cancelNewAssetPoolUpgrade",
      "outputs": [],
      "stateMutability": "nonpayable",
      "type": "function"
    },
    {
      "inputs": [
        {
          "internalType": "address",
          "name": "recipient",
          "type": "address"
        },
        {
          "internalType": "uint256",
          "name": "amount",
          "type": "uint256"
        }
      ],
      "name": "claim",
      "outputs": [],
      "stateMutability": "nonpayable",
      "type": "function"
    },
    {
      "inputs": [],
      "name": "collateralToken",
      "outputs": [
        {
          "internalType": "contract IERC20",
          "name": "",
          "type": "address"
        }
      ],
      "stateMutability": "view",
      "type": "function"
    },
    {
      "inputs": [
        {
          "internalType": "address",
          "name": "underwriter",
          "type": "address"
        }
      ],
      "name": "completeWithdrawal",
      "outputs": [
        {
          "internalType": "uint256",
          "name": "",
          "type": "uint256"
        }
      ],
      "stateMutability": "nonpayable",
      "type": "function"
    },
    {
      "inputs": [
        {
          "internalType": "uint256",
          "name": "amountToDeposit",
          "type": "uint256"
        }
      ],
      "name": "deposit",
      "outputs": [
        {
          "internalType": "uint256",
          "name": "",
          "type": "uint256"
        }
      ],
      "stateMutability": "nonpayable",
      "type": "function"
    },
    {
      "inputs": [
        {
          "internalType": "uint256",
          "name": "amountToDeposit",
          "type": "uint256"
        },
        {
          "internalType": "uint256",
          "name": "minAmountToMint",
          "type": "uint256"
        }
      ],
      "name": "depositWithMin",
      "outputs": [
        {
          "internalType": "uint256",
          "name": "",
          "type": "uint256"
        }
      ],
      "stateMutability": "nonpayable",
      "type": "function"
    },
    {
      "inputs": [],
      "name": "finalizeWithdrawalDelayUpdate",
      "outputs": [],
      "stateMutability": "nonpayable",
      "type": "function"
    },
    {
      "inputs": [],
      "name": "finalizeWithdrawalTimeoutUpdate",
      "outputs": [],
      "stateMutability": "nonpayable",
      "type": "function"
    },
    {
      "inputs": [],
      "name": "getRemainingWithdrawalDelayUpdateTime",
      "outputs": [
        {
          "internalType": "uint256",
          "name": "",
          "type": "uint256"
        }
      ],
      "stateMutability": "view",
      "type": "function"
    },
    {
      "inputs": [],
      "name": "getRemainingWithdrawalTimeoutUpdateTime",
      "outputs": [
        {
          "internalType": "uint256",
          "name": "",
          "type": "uint256"
        }
      ],
      "stateMutability": "view",
      "type": "function"
    },
    {
      "inputs": [
        {
          "internalType": "address",
          "name": "recipient",
          "type": "address"
        },
        {
          "internalType": "uint256",
          "name": "covAmount",
          "type": "uint256"
        }
      ],
      "name": "grantShares",
      "outputs": [],
      "stateMutability": "nonpayable",
      "type": "function"
    },
    {
      "inputs": [
        {
          "internalType": "uint256",
          "name": "covAmount",
          "type": "uint256"
        }
      ],
      "name": "initiateWithdrawal",
      "outputs": [],
      "stateMutability": "nonpayable",
      "type": "function"
    },
    {
      "inputs": [],
      "name": "newAssetPool",
      "outputs": [
        {
          "internalType": "contract IAssetPoolUpgrade",
          "name": "",
          "type": "address"
        }
      ],
      "stateMutability": "view",
      "type": "function"
    },
    {
      "inputs": [],
      "name": "newWithdrawalDelay",
      "outputs": [
        {
          "internalType": "uint256",
          "name": "",
          "type": "uint256"
        }
      ],
      "stateMutability": "view",
      "type": "function"
    },
    {
      "inputs": [],
      "name": "newWithdrawalTimeout",
      "outputs": [
        {
          "internalType": "uint256",
          "name": "",
          "type": "uint256"
        }
      ],
      "stateMutability": "view",
      "type": "function"
    },
    {
      "inputs": [],
      "name": "owner",
      "outputs": [
        {
          "internalType": "address",
          "name": "",
          "type": "address"
        }
      ],
      "stateMutability": "view",
      "type": "function"
    },
    {
      "inputs": [
        {
          "internalType": "address",
          "name": "",
          "type": "address"
        }
      ],
      "name": "pendingWithdrawal",
      "outputs": [
        {
          "internalType": "uint256",
          "name": "",
          "type": "uint256"
        }
      ],
      "stateMutability": "view",
      "type": "function"
    },
    {
      "inputs": [
        {
          "internalType": "address",
          "name": "from",
          "type": "address"
        },
        {
          "internalType": "uint256",
          "name": "amount",
          "type": "uint256"
        },
        {
          "internalType": "address",
          "name": "token",
          "type": "address"
        },
        {
          "internalType": "bytes",
          "name": "extraData",
          "type": "bytes"
        }
      ],
      "name": "receiveApproval",
      "outputs": [],
      "stateMutability": "nonpayable",
      "type": "function"
    },
    {
      "inputs": [],
      "name": "renounceOwnership",
      "outputs": [],
      "stateMutability": "nonpayable",
      "type": "function"
    },
    {
      "inputs": [],
      "name": "rewardsPool",
      "outputs": [
        {
          "internalType": "contract RewardsPool",
          "name": "",
          "type": "address"
        }
      ],
      "stateMutability": "view",
      "type": "function"
    },
    {
      "inputs": [],
      "name": "totalValue",
      "outputs": [
        {
          "internalType": "uint256",
          "name": "",
          "type": "uint256"
        }
      ],
      "stateMutability": "view",
      "type": "function"
    },
    {
      "inputs": [
        {
          "internalType": "address",
          "name": "newOwner",
          "type": "address"
        }
      ],
      "name": "transferOwnership",
      "outputs": [],
      "stateMutability": "nonpayable",
      "type": "function"
    },
    {
      "inputs": [],
      "name": "underwriterToken",
      "outputs": [
        {
          "internalType": "contract UnderwriterToken",
          "name": "",
          "type": "address"
        }
      ],
      "stateMutability": "view",
      "type": "function"
    },
    {
      "inputs": [
        {
          "internalType": "uint256",
          "name": "covAmount",
          "type": "uint256"
        },
        {
          "internalType": "address",
          "name": "_newAssetPool",
          "type": "address"
        }
      ],
      "name": "upgradeToNewAssetPool",
      "outputs": [],
      "stateMutability": "nonpayable",
      "type": "function"
    },
    {
      "inputs": [],
      "name": "withdrawalDelay",
      "outputs": [
        {
          "internalType": "uint256",
          "name": "",
          "type": "uint256"
        }
      ],
      "stateMutability": "view",
      "type": "function"
    },
    {
      "inputs": [],
      "name": "withdrawalDelayChangeInitiated",
      "outputs": [
        {
          "internalType": "uint256",
          "name": "",
          "type": "uint256"
        }
      ],
      "stateMutability": "view",
      "type": "function"
    },
    {
      "inputs": [],
      "name": "withdrawalGovernanceDelay",
      "outputs": [
        {
          "internalType": "uint256",
          "name": "",
          "type": "uint256"
        }
      ],
      "stateMutability": "view",
      "type": "function"
    },
    {
      "inputs": [
        {
          "internalType": "address",
          "name": "",
          "type": "address"
        }
      ],
      "name": "withdrawalInitiatedTimestamp",
      "outputs": [
        {
          "internalType": "uint256",
          "name": "",
          "type": "uint256"
        }
      ],
      "stateMutability": "view",
      "type": "function"
    },
    {
      "inputs": [],
      "name": "withdrawalTimeout",
      "outputs": [
        {
          "internalType": "uint256",
          "name": "",
          "type": "uint256"
        }
      ],
      "stateMutability": "view",
      "type": "function"
    },
    {
      "inputs": [],
      "name": "withdrawalTimeoutChangeInitiated",
      "outputs": [
        {
          "internalType": "uint256",
          "name": "",
          "type": "uint256"
        }
      ],
      "stateMutability": "view",
      "type": "function"
    }
  ],
  "transactionHash": "0x41f2a02b3abd54dd25e51350b338a45d722e2dc90656948df46e7630883442ba",
  "args": [
    "0x85Eee30c52B0b379b046Fb0F85F4f3Dc3009aFEC",
    "0x2Aa24DAc5E494e7B028ED43023530E5769df5D8b",
    "0x123694886DBf5Ac94DDA07135349534536D14cAf"
  ],
  "solcInputHash": "cfe9d301ce312e07457e27037000d165",
  "bytecode": "0x60e0604052621baf806002556202a3006005553480156200001f57600080fd5b5060405162005ebd38038062005ebd83398181016040528101906200004591906200023a565b600062000057620001df60201b60201c565b9050806000806101000a81548173ffffffffffffffffffffffffffffffffffffffff021916908373ffffffffffffffffffffffffffffffffffffffff1602179055508073ffffffffffffffffffffffffffffffffffffffff16600073ffffffffffffffffffffffffffffffffffffffff167f8be0079c531659141344cd1fd0a4f28419497f9722a3daafe3b4186f6b6457e060405160405180910390a3508273ffffffffffffffffffffffffffffffffffffffff1660808173ffffffffffffffffffffffffffffffffffffffff1660601b815250508173ffffffffffffffffffffffffffffffffffffffff1660a08173ffffffffffffffffffffffffffffffffffffffff1660601b815250508230826040516200017490620001e7565b6200018293929190620002b8565b604051809103906000f0801580156200019f573d6000803e3d6000fd5b5073ffffffffffffffffffffffffffffffffffffffff1660c08173ffffffffffffffffffffffffffffffffffffffff1660601b81525050505050620003cc565b600033905090565b6119a2806200451b83390190565b60008151905062000206816200037e565b92915050565b6000815190506200021d8162000398565b92915050565b6000815190506200023481620003b2565b92915050565b60008060006060848603121562000256576200025562000379565b5b600062000266868287016200020c565b9350506020620002798682870162000223565b92505060406200028c86828701620001f5565b9150509250925092565b620002a181620002f5565b82525050565b620002b28162000351565b82525050565b6000606082019050620002cf6000830186620002a7565b620002de602083018562000296565b620002ed604083018462000296565b949350505050565b6000620003028262000331565b9050919050565b60006200031682620002f5565b9050919050565b60006200032a82620002f5565b9050919050565b600073ffffffffffffffffffffffffffffffffffffffff82169050919050565b60006200035e8262000365565b9050919050565b6000620003728262000331565b9050919050565b600080fd5b6200038981620002f5565b81146200039557600080fd5b50565b620003a38162000309565b8114620003af57600080fd5b50565b620003bd816200031d565b8114620003c957600080fd5b50565b60805160601c60a05160601c60c05160601c614075620004a6600039600081816105d801528181611067015281816117dd01528181611a3101528181611f37015281816122dd01526124fc01526000818161091301528181610f410152818161124c01528181611a0b01528181611e97015281816120ec0152818161235d0152818161257e01526128010152600081816110e901528181611206015281816114d001528181611862015281816118ac01528181611acf01528181611fb9015281816120a601528181612620015261289401526140756000f3fe608060405234801561001057600080fd5b50600436106101fb5760003560e01c8063715018a61161011a578063aad3ec96116100ad578063cc5398041161007c578063cc53980414610546578063d4c3eea014610564578063f2fde38b14610582578063fca555621461059e578063ff603d22146105ba576101fb565b8063aad3ec96146104d2578063b2016bd4146104ee578063b6b55f251461050c578063c2ef0dd61461053c576101fb565b80639ac9e7e5116100e95780639ac9e7e51461044a578063a6a56fa314610466578063a7ab696114610484578063a84f0f3f146104a2576101fb565b8063715018a6146103e85780638b4bcc4a146103f25780638da5cb5b146104105780638f4ffcb11461042e576101fb565b80632d2545e71161019257806347a5cfdb1161016157806347a5cfdb1461034e57806369da62f41461036c5780636c51741c146103885780636dbaf9ee146103b8576101fb565b80632d2545e7146102d65780633366b20b146102f45780633642110d146103125780634265117014610330576101fb565b80630964c95b116101ce5780630964c95b1461026457806312edde5e1461029457806315245857146102b05780632828fdb1146102ba576101fb565b80630359fea9146102005780630535f3bd1461021e57806307e039301461023c578063092b7eb51461025a575b600080fd5b6102086105d6565b60405161021591906134ab565b60405180910390f35b6102266105fa565b60405161023391906137a3565b60405180910390f35b610244610600565b60405161025191906137a3565b60405180910390f35b610262610606565b005b61027e60048036038101906102799190612dee565b610772565b60405161028b91906137a3565b60405180910390f35b6102ae60048036038101906102a99190612f3d565b61078a565b005b6102b861095d565b005b6102d460048036038101906102cf9190612f3d565b610ac9565b005b6102de610b8f565b6040516102eb91906137a3565b60405180910390f35b6102fc610bb4565b6040516103099190613475565b60405180910390f35b61031a610bda565b60405161032791906137a3565b60405180910390f35b610338610bf4565b60405161034591906137a3565b60405180910390f35b610356610bfa565b60405161036391906137a3565b60405180910390f35b61038660048036038101906103819190612f10565b610c00565b005b6103a2600480360381019061039d9190612fd7565b610d67565b6040516103af91906137a3565b60405180910390f35b6103d260048036038101906103cd9190612dee565b610dcd565b6040516103df91906137a3565b60405180910390f35b6103f06112e3565b005b6103fa61141d565b60405161040791906137a3565b60405180910390f35b610418611437565b60405161042591906133d1565b60405180910390f35b61044860048036038101906104439190612e5b565b611460565b005b610464600480360381019061045f9190612f3d565b611625565b005b61046e6116eb565b60405161047b91906137a3565b60405180910390f35b61048c6116f1565b60405161049991906137a3565b60405180910390f35b6104bc60048036038101906104b79190612dee565b6116f7565b6040516104c991906137a3565b60405180910390f35b6104ec60048036038101906104e79190612e1b565b61170f565b005b6104f66118aa565b6040516105039190613490565b60405180910390f35b61052660048036038101906105219190612f3d565b6118ce565b60405161053391906137a3565b60405180910390f35b6105446118f0565b005b61054e611a09565b60405161055b91906134c6565b60405180910390f35b61056c611a2d565b60405161057991906137a3565b60405180910390f35b61059c60048036038101906105979190612dee565b611b85565b005b6105b860048036038101906105b39190612f97565b611d2e565b005b6105d460048036038101906105cf9190612e1b565b61225f565b005b7f000000000000000000000000000000000000000000000000000000000000000081565b60035481565b60065481565b61060e6123ec565b73ffffffffffffffffffffffffffffffffffffffff1661062c611437565b73ffffffffffffffffffffffffffffffffffffffff1614610682576040517f08c379a000000000000000000000000000000000000000000000000000000000815260040161067990613663565b60405180910390fd5b600454600081116106c8576040517f08c379a00000000000000000000000000000000000000000000000000000000081526004016106bf906135c3565b60405180910390fd5b6106d0610b8f565b81426106dc9190613931565b101561071d576040517f08c379a000000000000000000000000000000000000000000000000000000000815260040161071490613643565b60405180910390fd5b6003546002819055507fb34b8e54226bc5e8f4a9d846e344e0c42d09eeb1c79798df7ce7460c16071e2d60025460405161075791906137a3565b60405180910390a16000600381905550600060048190555050565b60096020528060005260406000206000915090505481565b6000600960003373ffffffffffffffffffffffffffffffffffffffff1673ffffffffffffffffffffffffffffffffffffffff16815260200190815260200160002054905060008211806107dd5750600081115b61081c576040517f08c379a000000000000000000000000000000000000000000000000000000000815260040161081390613623565b60405180910390fd5b81816108289190613850565b905080600960003373ffffffffffffffffffffffffffffffffffffffff1673ffffffffffffffffffffffffffffffffffffffff1681526020019081526020016000208190555042600860003373ffffffffffffffffffffffffffffffffffffffff1673ffffffffffffffffffffffffffffffffffffffff168152602001908152602001600020819055503373ffffffffffffffffffffffffffffffffffffffff167f31f69201fab7912e3ec9850e3ab705964bf46d9d4276bdcbb6d05e965e5f540182426040516108fa9291906137be565b60405180910390a26000821115610959576109583330847f000000000000000000000000000000000000000000000000000000000000000073ffffffffffffffffffffffffffffffffffffffff166123f4909392919063ffffffff16565b5b5050565b6109656123ec565b73ffffffffffffffffffffffffffffffffffffffff16610983611437565b73ffffffffffffffffffffffffffffffffffffffff16146109d9576040517f08c379a00000000000000000000000000000000000000000000000000000000081526004016109d090613663565b60405180910390fd5b60075460008111610a1f576040517f08c379a0000000000000000000000000000000000000000000000000000000008152600401610a16906135c3565b60405180910390fd5b610a27610b8f565b8142610a339190613931565b1015610a74576040517f08c379a0000000000000000000000000000000000000000000000000000000008152600401610a6b90613643565b60405180910390fd5b6006546005819055507f9598c02e95262720ac8491c6255a4e2cfdabfb1595e7db4075699a286c0e5178600554604051610aae91906137a3565b60405180910390a16000600681905550600060078190555050565b610ad16123ec565b73ffffffffffffffffffffffffffffffffffffffff16610aef611437565b73ffffffffffffffffffffffffffffffffffffffff1614610b45576040517f08c379a0000000000000000000000000000000000000000000000000000000008152600401610b3c90613663565b60405180910390fd5b80600681905550426007819055507fea7f37aef8286a6784bab40be2b2b8d865d3a302ebaa9554a93393f0af4991be8142604051610b849291906137be565b60405180910390a150565b60006202a300600554600254610ba59190613850565b610baf9190613850565b905090565b600160009054906101000a900473ffffffffffffffffffffffffffffffffffffffff1681565b6000610bef600754610bea610b8f565b61247d565b905090565b60055481565b60045481565b610c086123ec565b73ffffffffffffffffffffffffffffffffffffffff16610c26611437565b73ffffffffffffffffffffffffffffffffffffffff1614610c7c576040517f08c379a0000000000000000000000000000000000000000000000000000000008152600401610c7390613663565b60405180910390fd5b600073ffffffffffffffffffffffffffffffffffffffff168173ffffffffffffffffffffffffffffffffffffffff161415610cec576040517f08c379a0000000000000000000000000000000000000000000000000000000008152600401610ce390613723565b60405180910390fd5b80600160006101000a81548173ffffffffffffffffffffffffffffffffffffffff021916908373ffffffffffffffffffffffffffffffffffffffff1602179055507f798c873acf96c84f872a0ba8ab09b2eda82566b35ec01de0053dddc703294bd581604051610d5c91906133d1565b60405180910390a150565b600080610d73846124f8565b905080831115610db8576040517f08c379a0000000000000000000000000000000000000000000000000000000008152600401610daf90613523565b60405180910390fd5b610dc33385836126fd565b8091505092915050565b600080600860008473ffffffffffffffffffffffffffffffffffffffff1673ffffffffffffffffffffffffffffffffffffffff16815260200190815260200160002054905060008111610e55576040517f08c379a0000000000000000000000000000000000000000000000000000000008152600401610e4c90613783565b60405180910390fd5b600060025482610e659190613850565b9050428110610ea9576040517f08c379a0000000000000000000000000000000000000000000000000000000008152600401610ea090613683565b60405180910390fd5b4260055482610eb89190613850565b1015610ef9576040517f08c379a0000000000000000000000000000000000000000000000000000000008152600401610ef0906136e3565b60405180910390fd5b6000600960008673ffffffffffffffffffffffffffffffffffffffff1673ffffffffffffffffffffffffffffffffffffffff16815260200190815260200160002054905060007f000000000000000000000000000000000000000000000000000000000000000073ffffffffffffffffffffffffffffffffffffffff166318160ddd6040518163ffffffff1660e01b815260040160206040518083038186803b158015610fa557600080fd5b505afa158015610fb9573d6000803e3d6000fd5b505050506040513d601f19601f82011682018060405250810190610fdd9190612f6a565b9050600860008773ffffffffffffffffffffffffffffffffffffffff1673ffffffffffffffffffffffffffffffffffffffff16815260200190815260200160002060009055600960008773ffffffffffffffffffffffffffffffffffffffff1673ffffffffffffffffffffffffffffffffffffffff168152602001908152602001600020600090557f000000000000000000000000000000000000000000000000000000000000000073ffffffffffffffffffffffffffffffffffffffff16633ccfd60b6040518163ffffffff1660e01b8152600401600060405180830381600087803b1580156110cd57600080fd5b505af11580156110e1573d6000803e3d6000fd5b5050505060007f000000000000000000000000000000000000000000000000000000000000000073ffffffffffffffffffffffffffffffffffffffff166370a08231306040518263ffffffff1660e01b815260040161114091906133d1565b60206040518083038186803b15801561115857600080fd5b505afa15801561116c573d6000803e3d6000fd5b505050506040513d601f19601f820116820180604052508101906111909190612f6a565b905060008282856111a191906138d7565b6111ab91906138a6565b90508773ffffffffffffffffffffffffffffffffffffffff167fabed221d0c46913d6cc666ed64634168e3f1cc2638e31c6bdae1cba0b3681e468286426040516111f7939291906137e7565b60405180910390a261124a88827f000000000000000000000000000000000000000000000000000000000000000073ffffffffffffffffffffffffffffffffffffffff166128de9092919063ffffffff16565b7f000000000000000000000000000000000000000000000000000000000000000073ffffffffffffffffffffffffffffffffffffffff166342966c68856040518263ffffffff1660e01b81526004016112a391906137a3565b600060405180830381600087803b1580156112bd57600080fd5b505af11580156112d1573d6000803e3d6000fd5b50505050809650505050505050919050565b6112eb6123ec565b73ffffffffffffffffffffffffffffffffffffffff16611309611437565b73ffffffffffffffffffffffffffffffffffffffff161461135f576040517f08c379a000000000000000000000000000000000000000000000000000000000815260040161135690613663565b60405180910390fd5b600073ffffffffffffffffffffffffffffffffffffffff1660008054906101000a900473ffffffffffffffffffffffffffffffffffffffff1673ffffffffffffffffffffffffffffffffffffffff167f8be0079c531659141344cd1fd0a4f28419497f9722a3daafe3b4186f6b6457e060405160405180910390a360008060006101000a81548173ffffffffffffffffffffffffffffffffffffffff021916908373ffffffffffffffffffffffffffffffffffffffff160217905550565b600061143260045461142d610b8f565b61247d565b905090565b60008060009054906101000a900473ffffffffffffffffffffffffffffffffffffffff16905090565b8273ffffffffffffffffffffffffffffffffffffffff163373ffffffffffffffffffffffffffffffffffffffff16146114ce576040517f08c379a00000000000000000000000000000000000000000000000000000000081526004016114c590613603565b60405180910390fd5b7f000000000000000000000000000000000000000000000000000000000000000073ffffffffffffffffffffffffffffffffffffffff168373ffffffffffffffffffffffffffffffffffffffff161461155c576040517f08c379a000000000000000000000000000000000000000000000000000000000815260040161155390613543565b60405180910390fd5b6000611567856124f8565b90506000838390501461161257602083839050146115ba576040517f08c379a00000000000000000000000000000000000000000000000000000000081526004016115b1906135e3565b60405180910390fd5b600083838101906115cb9190612f3d565b905081811115611610576040517f08c379a000000000000000000000000000000000000000000000000000000000815260040161160790613523565b60405180910390fd5b505b61161d8686836126fd565b505050505050565b61162d6123ec565b73ffffffffffffffffffffffffffffffffffffffff1661164b611437565b73ffffffffffffffffffffffffffffffffffffffff16146116a1576040517f08c379a000000000000000000000000000000000000000000000000000000000815260040161169890613663565b60405180910390fd5b80600381905550426004819055507fad53a24a52f2d7f29240a9dbf89503d658764ecda61f09dc6fc99f8384b40a5181426040516116e09291906137be565b60405180910390a150565b60075481565b60025481565b60086020528060005260406000206000915090505481565b6117176123ec565b73ffffffffffffffffffffffffffffffffffffffff16611735611437565b73ffffffffffffffffffffffffffffffffffffffff161461178b576040517f08c379a000000000000000000000000000000000000000000000000000000000815260040161178290613663565b60405180910390fd5b8173ffffffffffffffffffffffffffffffffffffffff167f954df0664683c9ae1eee78683930912208efdac997b3c0454ac72a9262e4e37c82426040516117d39291906137be565b60405180910390a27f000000000000000000000000000000000000000000000000000000000000000073ffffffffffffffffffffffffffffffffffffffff16633ccfd60b6040518163ffffffff1660e01b8152600401600060405180830381600087803b15801561184357600080fd5b505af1158015611857573d6000803e3d6000fd5b505050506118a682827f000000000000000000000000000000000000000000000000000000000000000073ffffffffffffffffffffffffffffffffffffffff166128de9092919063ffffffff16565b5050565b7f000000000000000000000000000000000000000000000000000000000000000081565b6000806118da836124f8565b90506118e73384836126fd565b80915050919050565b6118f86123ec565b73ffffffffffffffffffffffffffffffffffffffff16611916611437565b73ffffffffffffffffffffffffffffffffffffffff161461196c576040517f08c379a000000000000000000000000000000000000000000000000000000000815260040161196390613663565b60405180910390fd5b7fc5b126eaad8719040f9f4a97c3fee33e39511a07b0c7506940708ea84da3cbb5600160009054906101000a900473ffffffffffffffffffffffffffffffffffffffff166040516119bd91906133d1565b60405180910390a16000600160006101000a81548173ffffffffffffffffffffffffffffffffffffffff021916908373ffffffffffffffffffffffffffffffffffffffff160217905550565b7f000000000000000000000000000000000000000000000000000000000000000081565b60007f000000000000000000000000000000000000000000000000000000000000000073ffffffffffffffffffffffffffffffffffffffff1663d6f192626040518163ffffffff1660e01b815260040160206040518083038186803b158015611a9557600080fd5b505afa158015611aa9573d6000803e3d6000fd5b505050506040513d601f19601f82011682018060405250810190611acd9190612f6a565b7f000000000000000000000000000000000000000000000000000000000000000073ffffffffffffffffffffffffffffffffffffffff166370a08231306040518263ffffffff1660e01b8152600401611b2691906133d1565b60206040518083038186803b158015611b3e57600080fd5b505afa158015611b52573d6000803e3d6000fd5b505050506040513d601f19601f82011682018060405250810190611b769190612f6a565b611b809190613850565b905090565b611b8d6123ec565b73ffffffffffffffffffffffffffffffffffffffff16611bab611437565b73ffffffffffffffffffffffffffffffffffffffff1614611c01576040517f08c379a0000000000000000000000000000000000000000000000000000000008152600401611bf890613663565b60405180910390fd5b600073ffffffffffffffffffffffffffffffffffffffff168173ffffffffffffffffffffffffffffffffffffffff161415611c71576040517f08c379a0000000000000000000000000000000000000000000000000000000008152600401611c6890613503565b60405180910390fd5b8073ffffffffffffffffffffffffffffffffffffffff1660008054906101000a900473ffffffffffffffffffffffffffffffffffffffff1673ffffffffffffffffffffffffffffffffffffffff167f8be0079c531659141344cd1fd0a4f28419497f9722a3daafe3b4186f6b6457e060405160405180910390a3806000806101000a81548173ffffffffffffffffffffffffffffffffffffffff021916908373ffffffffffffffffffffffffffffffffffffffff16021790555050565b600073ffffffffffffffffffffffffffffffffffffffff16600160009054906101000a900473ffffffffffffffffffffffffffffffffffffffff1673ffffffffffffffffffffffffffffffffffffffff161415611dc0576040517f08c379a0000000000000000000000000000000000000000000000000000000008152600401611db7906135a3565b60405180910390fd5b8073ffffffffffffffffffffffffffffffffffffffff16600160009054906101000a900473ffffffffffffffffffffffffffffffffffffffff1673ffffffffffffffffffffffffffffffffffffffff1614611e50576040517f08c379a0000000000000000000000000000000000000000000000000000000008152600401611e4790613583565b60405180910390fd5b60008211611e93576040517f08c379a0000000000000000000000000000000000000000000000000000000008152600401611e8a90613623565b60405180910390fd5b60007f000000000000000000000000000000000000000000000000000000000000000073ffffffffffffffffffffffffffffffffffffffff166318160ddd6040518163ffffffff1660e01b815260040160206040518083038186803b158015611efb57600080fd5b505afa158015611f0f573d6000803e3d6000fd5b505050506040513d601f19601f82011682018060405250810190611f339190612f6a565b90507f000000000000000000000000000000000000000000000000000000000000000073ffffffffffffffffffffffffffffffffffffffff16633ccfd60b6040518163ffffffff1660e01b8152600401600060405180830381600087803b158015611f9d57600080fd5b505af1158015611fb1573d6000803e3d6000fd5b5050505060007f000000000000000000000000000000000000000000000000000000000000000073ffffffffffffffffffffffffffffffffffffffff166370a08231306040518263ffffffff1660e01b815260040161201091906133d1565b60206040518083038186803b15801561202857600080fd5b505afa15801561203c573d6000803e3d6000fd5b505050506040513d601f19601f820116820180604052508101906120609190612f6a565b9050600082828661207191906138d7565b61207b91906138a6565b90506120ea600160009054906101000a900473ffffffffffffffffffffffffffffffffffffffff16827f000000000000000000000000000000000000000000000000000000000000000073ffffffffffffffffffffffffffffffffffffffff166129649092919063ffffffff16565b7f000000000000000000000000000000000000000000000000000000000000000073ffffffffffffffffffffffffffffffffffffffff166379cc679033876040518363ffffffff1660e01b815260040161214592919061344c565b600060405180830381600087803b15801561215f57600080fd5b505af1158015612173573d6000803e3d6000fd5b50505050600160009054906101000a900473ffffffffffffffffffffffffffffffffffffffff1673ffffffffffffffffffffffffffffffffffffffff16632f4f21e233836040518363ffffffff1660e01b81526004016121d492919061344c565b600060405180830381600087803b1580156121ee57600080fd5b505af1158015612202573d6000803e3d6000fd5b505050503373ffffffffffffffffffffffffffffffffffffffff167f52a02543e8a884453eaf1c2c5bec12d4f9e7ad29faa4ce468387ea34cef9a911828742604051612250939291906137e7565b60405180910390a25050505050565b6122676123ec565b73ffffffffffffffffffffffffffffffffffffffff16612285611437565b73ffffffffffffffffffffffffffffffffffffffff16146122db576040517f08c379a00000000000000000000000000000000000000000000000000000000081526004016122d290613663565b60405180910390fd5b7f000000000000000000000000000000000000000000000000000000000000000073ffffffffffffffffffffffffffffffffffffffff16633ccfd60b6040518163ffffffff1660e01b8152600401600060405180830381600087803b15801561234357600080fd5b505af1158015612357573d6000803e3d6000fd5b505050507f000000000000000000000000000000000000000000000000000000000000000073ffffffffffffffffffffffffffffffffffffffff166340c10f1983836040518363ffffffff1660e01b81526004016123b692919061344c565b600060405180830381600087803b1580156123d057600080fd5b505af11580156123e4573d6000803e3d6000fd5b505050505050565b600033905090565b612477846323b872dd60e01b85858560405160240161241593929190613415565b604051602081830303815290604052907bffffffffffffffffffffffffffffffffffffffffffffffffffffffff19166020820180517bffffffffffffffffffffffffffffffffffffffffffffffffffffffff8381831617835250505050612ac2565b50505050565b60008083116124c1576040517f08c379a00000000000000000000000000000000000000000000000000000000081526004016124b8906135c3565b60405180910390fd5b600083426124cf9190613931565b90508281106124e25760009150506124f2565b80836124ee9190613931565b9150505b92915050565b60007f000000000000000000000000000000000000000000000000000000000000000073ffffffffffffffffffffffffffffffffffffffff16633ccfd60b6040518163ffffffff1660e01b8152600401600060405180830381600087803b15801561256257600080fd5b505af1158015612576573d6000803e3d6000fd5b5050505060007f000000000000000000000000000000000000000000000000000000000000000073ffffffffffffffffffffffffffffffffffffffff166318160ddd6040518163ffffffff1660e01b815260040160206040518083038186803b1580156125e257600080fd5b505afa1580156125f6573d6000803e3d6000fd5b505050506040513d601f19601f8201168201806040525081019061261a9190612f6a565b905060007f000000000000000000000000000000000000000000000000000000000000000073ffffffffffffffffffffffffffffffffffffffff166370a08231306040518263ffffffff1660e01b815260040161267791906133d1565b60206040518083038186803b15801561268f57600080fd5b505afa1580156126a3573d6000803e3d6000fd5b505050506040513d601f19601f820116820180604052508101906126c79190612f6a565b905060008214156126dc5783925050506126f8565b8082856126e991906138d7565b6126f391906138a6565b925050505b919050565b3073ffffffffffffffffffffffffffffffffffffffff168373ffffffffffffffffffffffffffffffffffffffff16141561276c576040517f08c379a000000000000000000000000000000000000000000000000000000000815260040161276390613703565b60405180910390fd5b600081116127af576040517f08c379a00000000000000000000000000000000000000000000000000000000081526004016127a6906136a3565b60405180910390fd5b8273ffffffffffffffffffffffffffffffffffffffff167f73a19dd210f1a7f902193214c0ee91dd35ee5b4d920cba8d519eca65a7b488ca83836040516127f79291906137be565b60405180910390a27f000000000000000000000000000000000000000000000000000000000000000073ffffffffffffffffffffffffffffffffffffffff166340c10f1984836040518363ffffffff1660e01b815260040161285a92919061344c565b600060405180830381600087803b15801561287457600080fd5b505af1158015612888573d6000803e3d6000fd5b505050506128d98330847f000000000000000000000000000000000000000000000000000000000000000073ffffffffffffffffffffffffffffffffffffffff166123f4909392919063ffffffff16565b505050565b61295f8363a9059cbb60e01b84846040516024016128fd92919061344c565b604051602081830303815290604052907bffffffffffffffffffffffffffffffffffffffffffffffffffffffff19166020820180517bffffffffffffffffffffffffffffffffffffffffffffffffffffffff8381831617835250505050612ac2565b505050565b60008114806129fd575060008373ffffffffffffffffffffffffffffffffffffffff1663dd62ed3e30856040518363ffffffff1660e01b81526004016129ab9291906133ec565b60206040518083038186803b1580156129c357600080fd5b505afa1580156129d7573d6000803e3d6000fd5b505050506040513d601f19601f820116820180604052508101906129fb9190612f6a565b145b612a3c576040517f08c379a0000000000000000000000000000000000000000000000000000000008152600401612a3390613763565b60405180910390fd5b612abd8363095ea7b360e01b8484604051602401612a5b92919061344c565b604051602081830303815290604052907bffffffffffffffffffffffffffffffffffffffffffffffffffffffff19166020820180517bffffffffffffffffffffffffffffffffffffffffffffffffffffffff8381831617835250505050612ac2565b505050565b6000612b24826040518060400160405280602081526020017f5361666545524332303a206c6f772d6c6576656c2063616c6c206661696c65648152508573ffffffffffffffffffffffffffffffffffffffff16612b899092919063ffffffff16565b9050600081511115612b845780806020019051810190612b449190612ee3565b612b83576040517f08c379a0000000000000000000000000000000000000000000000000000000008152600401612b7a90613743565b60405180910390fd5b5b505050565b6060612b988484600085612ba1565b90509392505050565b606082471015612be6576040517f08c379a0000000000000000000000000000000000000000000000000000000008152600401612bdd90613563565b60405180910390fd5b612bef85612cb5565b612c2e576040517f08c379a0000000000000000000000000000000000000000000000000000000008152600401612c25906136c3565b60405180910390fd5b6000808673ffffffffffffffffffffffffffffffffffffffff168587604051612c5791906133ba565b60006040518083038185875af1925050503d8060008114612c94576040519150601f19603f3d011682016040523d82523d6000602084013e612c99565b606091505b5091509150612ca9828286612cc8565b92505050949350505050565b600080823b905060008111915050919050565b60608315612cd857829050612d28565b600083511115612ceb5782518084602001fd5b816040517f08c379a0000000000000000000000000000000000000000000000000000000008152600401612d1f91906134e1565b60405180910390fd5b9392505050565b600081359050612d3e81613fe3565b92915050565b600081519050612d5381613ffa565b92915050565b60008083601f840112612d6f57612d6e613ae5565b5b8235905067ffffffffffffffff811115612d8c57612d8b613ae0565b5b602083019150836001820283011115612da857612da7613aea565b5b9250929050565b600081359050612dbe81614011565b92915050565b600081359050612dd381614028565b92915050565b600081519050612de881614028565b92915050565b600060208284031215612e0457612e03613af4565b5b6000612e1284828501612d2f565b91505092915050565b60008060408385031215612e3257612e31613af4565b5b6000612e4085828601612d2f565b9250506020612e5185828601612dc4565b9150509250929050565b600080600080600060808688031215612e7757612e76613af4565b5b6000612e8588828901612d2f565b9550506020612e9688828901612dc4565b9450506040612ea788828901612d2f565b935050606086013567ffffffffffffffff811115612ec857612ec7613aef565b5b612ed488828901612d59565b92509250509295509295909350565b600060208284031215612ef957612ef8613af4565b5b6000612f0784828501612d44565b91505092915050565b600060208284031215612f2657612f25613af4565b5b6000612f3484828501612daf565b91505092915050565b600060208284031215612f5357612f52613af4565b5b6000612f6184828501612dc4565b91505092915050565b600060208284031215612f8057612f7f613af4565b5b6000612f8e84828501612dd9565b91505092915050565b60008060408385031215612fae57612fad613af4565b5b6000612fbc85828601612dc4565b9250506020612fcd85828601612d2f565b9150509250929050565b60008060408385031215612fee57612fed613af4565b5b6000612ffc85828601612dc4565b925050602061300d85828601612dc4565b9150509250929050565b61302081613965565b82525050565b60006130318261381e565b61303b8185613834565b935061304b818560208601613a4f565b80840191505092915050565b613060816139bf565b82525050565b61306f816139e3565b82525050565b61307e81613a07565b82525050565b61308d81613a2b565b82525050565b600061309e82613829565b6130a8818561383f565b93506130b8818560208601613a4f565b6130c181613af9565b840191505092915050565b60006130d960268361383f565b91506130e482613b0a565b604082019050919050565b60006130fc60338361383f565b915061310782613b59565b604082019050919050565b600061311f601c8361383f565b915061312a82613ba8565b602082019050919050565b600061314260268361383f565b915061314d82613bd1565b604082019050919050565b600061316560288361383f565b915061317082613c20565b604082019050919050565b6000613188601f8361383f565b915061319382613c6f565b602082019050919050565b60006131ab60148361383f565b91506131b682613c98565b602082019050919050565b60006131ce60168361383f565b91506131d982613cc1565b602082019050919050565b60006131f160198361383f565b91506131fc82613cea565b602082019050919050565b6000613214602f8361383f565b915061321f82613d13565b604082019050919050565b600061323760208361383f565b915061324282613d62565b602082019050919050565b600061325a60208361383f565b915061326582613d8b565b602082019050919050565b600061327d60208361383f565b915061328882613db4565b602082019050919050565b60006132a0602b8361383f565b91506132ab82613ddd565b604082019050919050565b60006132c3601d8361383f565b91506132ce82613e2c565b602082019050919050565b60006132e6601a8361383f565b91506132f182613e55565b602082019050919050565b600061330960188361383f565b915061331482613e7e565b602082019050919050565b600061332c60248361383f565b915061333782613ea7565b604082019050919050565b600061334f602a8361383f565b915061335a82613ef6565b604082019050919050565b600061337260368361383f565b915061337d82613f45565b604082019050919050565b6000613395602b8361383f565b91506133a082613f94565b604082019050919050565b6133b4816139b5565b82525050565b60006133c68284613026565b915081905092915050565b60006020820190506133e66000830184613017565b92915050565b60006040820190506134016000830185613017565b61340e6020830184613017565b9392505050565b600060608201905061342a6000830186613017565b6134376020830185613017565b61344460408301846133ab565b949350505050565b60006040820190506134616000830185613017565b61346e60208301846133ab565b9392505050565b600060208201905061348a6000830184613057565b92915050565b60006020820190506134a56000830184613066565b92915050565b60006020820190506134c06000830184613075565b92915050565b60006020820190506134db6000830184613084565b92915050565b600060208201905081810360008301526134fb8184613093565b905092915050565b6000602082019050818103600083015261351c816130cc565b9050919050565b6000602082019050818103600083015261353c816130ef565b9050919050565b6000602082019050818103600083015261355c81613112565b9050919050565b6000602082019050818103600083015261357c81613135565b9050919050565b6000602082019050818103600083015261359c81613158565b9050919050565b600060208201905081810360008301526135bc8161317b565b9050919050565b600060208201905081810360008301526135dc8161319e565b9050919050565b600060208201905081810360008301526135fc816131c1565b9050919050565b6000602082019050818103600083015261361c816131e4565b9050919050565b6000602082019050818103600083015261363c81613207565b9050919050565b6000602082019050818103600083015261365c8161322a565b9050919050565b6000602082019050818103600083015261367c8161324d565b9050919050565b6000602082019050818103600083015261369c81613270565b9050919050565b600060208201905081810360008301526136bc81613293565b9050919050565b600060208201905081810360008301526136dc816132b6565b9050919050565b600060208201905081810360008301526136fc816132d9565b9050919050565b6000602082019050818103600083015261371c816132fc565b9050919050565b6000602082019050818103600083015261373c8161331f565b9050919050565b6000602082019050818103600083015261375c81613342565b9050919050565b6000602082019050818103600083015261377c81613365565b9050919050565b6000602082019050818103600083015261379c81613388565b9050919050565b60006020820190506137b860008301846133ab565b92915050565b60006040820190506137d360008301856133ab565b6137e060208301846133ab565b9392505050565b60006060820190506137fc60008301866133ab565b61380960208301856133ab565b61381660408301846133ab565b949350505050565b600081519050919050565b600081519050919050565b600081905092915050565b600082825260208201905092915050565b600061385b826139b5565b9150613866836139b5565b9250827fffffffffffffffffffffffffffffffffffffffffffffffffffffffffffffffff0382111561389b5761389a613a82565b5b828201905092915050565b60006138b1826139b5565b91506138bc836139b5565b9250826138cc576138cb613ab1565b5b828204905092915050565b60006138e2826139b5565b91506138ed836139b5565b9250817fffffffffffffffffffffffffffffffffffffffffffffffffffffffffffffffff048311821515161561392657613925613a82565b5b828202905092915050565b600061393c826139b5565b9150613947836139b5565b92508282101561395a57613959613a82565b5b828203905092915050565b600061397082613995565b9050919050565b60008115159050919050565b600061398e82613965565b9050919050565b600073ffffffffffffffffffffffffffffffffffffffff82169050919050565b6000819050919050565b60006139ca826139d1565b9050919050565b60006139dc82613995565b9050919050565b60006139ee826139f5565b9050919050565b6000613a0082613995565b9050919050565b6000613a1282613a19565b9050919050565b6000613a2482613995565b9050919050565b6000613a3682613a3d565b9050919050565b6000613a4882613995565b9050919050565b60005b83811015613a6d578082015181840152602081019050613a52565b83811115613a7c576000848401525b50505050565b7f4e487b7100000000000000000000000000000000000000000000000000000000600052601160045260246000fd5b7f4e487b7100000000000000000000000000000000000000000000000000000000600052601260045260246000fd5b600080fd5b600080fd5b600080fd5b600080fd5b600080fd5b6000601f19601f8301169050919050565b7f4f776e61626c653a206e6577206f776e657220697320746865207a65726f206160008201527f6464726573730000000000000000000000000000000000000000000000000000602082015250565b7f416d6f756e7420746f206d696e7420697320736d616c6c6572207468616e207460008201527f6865207265717569726564206d696e696d756d00000000000000000000000000602082015250565b7f556e737570706f7274656420636f6c6c61746572616c20746f6b656e00000000600082015250565b7f416464726573733a20696e73756666696369656e742062616c616e636520666f60008201527f722063616c6c0000000000000000000000000000000000000000000000000000602082015250565b7f416464726573736573206f662061206e657720617373657420706f6f6c206d7560008201527f7374206d61746368000000000000000000000000000000000000000000000000602082015250565b7f4e657720617373657420706f6f6c206d7573742062652061737369676e656400600082015250565b7f4368616e6765206e6f7420696e69746961746564000000000000000000000000600082015250565b7f556e65787065637465642064617461206c656e67746800000000000000000000600082015250565b7f4f6e6c7920746f6b656e2063616c6c657220616c6c6f77656400000000000000600082015250565b7f556e64657277726974657220746f6b656e20616d6f756e74206d75737420626560008201527f2067726561746572207468616e20300000000000000000000000000000000000602082015250565b7f476f7665726e616e63652064656c617920686173206e6f7420656c6170736564600082015250565b7f4f776e61626c653a2063616c6c6572206973206e6f7420746865206f776e6572600082015250565b7f5769746864726177616c2064656c617920686173206e6f7420656c6170736564600082015250565b7f4d696e74656420746f6b656e7320616d6f756e74206d7573742062652067726560008201527f61746572207468616e2030000000000000000000000000000000000000000000602082015250565b7f416464726573733a2063616c6c20746f206e6f6e2d636f6e7472616374000000600082015250565b7f5769746864726177616c2074696d656f757420656c6170736564000000000000600082015250565b7f53656c662d6465706f736974206e6f7420616c6c6f7765640000000000000000600082015250565b7f4e657720617373657420706f6f6c2063616e2774206265207a65726f2061646460008201527f7265737300000000000000000000000000000000000000000000000000000000602082015250565b7f5361666545524332303a204552433230206f7065726174696f6e20646964206e60008201527f6f74207375636365656400000000000000000000000000000000000000000000602082015250565b7f5361666545524332303a20617070726f76652066726f6d206e6f6e2d7a65726f60008201527f20746f206e6f6e2d7a65726f20616c6c6f77616e636500000000000000000000602082015250565b7f4e6f207769746864726177616c20696e6974696174656420666f72207468652060008201527f756e646572777269746572000000000000000000000000000000000000000000602082015250565b613fec81613965565b8114613ff757600080fd5b50565b61400381613977565b811461400e57600080fd5b50565b61401a81613983565b811461402557600080fd5b50565b614031816139b5565b811461403c57600080fd5b5056fea2646970667358221220b5eb3de6547ac66030a2e59971d1f24292e15714a0c6855c8f9c6b3518b2272a64736f6c6343000805003360c060405260006001556000600255600060035560006004553480156200002557600080fd5b50604051620019a2380380620019a283398181016040528101906200004b9190620003a1565b60006200005d6200018360201b60201c565b9050806000806101000a81548173ffffffffffffffffffffffffffffffffffffffff021916908373ffffffffffffffffffffffffffffffffffffffff1602179055508073ffffffffffffffffffffffffffffffffffffffff16600073ffffffffffffffffffffffffffffffffffffffff167f8be0079c531659141344cd1fd0a4f28419497f9722a3daafe3b4186f6b6457e060405160405180910390a3508273ffffffffffffffffffffffffffffffffffffffff1660808173ffffffffffffffffffffffffffffffffffffffff1660601b815250508173ffffffffffffffffffffffffffffffffffffffff1660a08173ffffffffffffffffffffffffffffffffffffffff1660601b815250506200017a816200018b60201b60201c565b50505062000599565b600033905090565b6200019b6200018360201b60201c565b73ffffffffffffffffffffffffffffffffffffffff16620001c16200034a60201b60201c565b73ffffffffffffffffffffffffffffffffffffffff16146200021a576040517f08c379a000000000000000000000000000000000000000000000000000000000815260040162000211906200046d565b60405180910390fd5b600073ffffffffffffffffffffffffffffffffffffffff168173ffffffffffffffffffffffffffffffffffffffff1614156200028d576040517f08c379a000000000000000000000000000000000000000000000000000000000815260040162000284906200044b565b60405180910390fd5b8073ffffffffffffffffffffffffffffffffffffffff1660008054906101000a900473ffffffffffffffffffffffffffffffffffffffff1673ffffffffffffffffffffffffffffffffffffffff167f8be0079c531659141344cd1fd0a4f28419497f9722a3daafe3b4186f6b6457e060405160405180910390a3806000806101000a81548173ffffffffffffffffffffffffffffffffffffffff021916908373ffffffffffffffffffffffffffffffffffffffff16021790555050565b60008060009054906101000a900473ffffffffffffffffffffffffffffffffffffffff16905090565b600081519050620003848162000565565b92915050565b6000815190506200039b816200057f565b92915050565b600080600060608486031215620003bd57620003bc620004e8565b5b6000620003cd868287016200038a565b9350506020620003e08682870162000373565b9250506040620003f38682870162000373565b9150509250925092565b60006200040c6026836200048f565b91506200041982620004ed565b604082019050919050565b6000620004336020836200048f565b915062000440826200053c565b602082019050919050565b600060208201905081810360008301526200046681620003fd565b9050919050565b60006020820190508181036000830152620004888162000424565b9050919050565b600082825260208201905092915050565b6000620004ad82620004c8565b9050919050565b6000620004c182620004a0565b9050919050565b600073ffffffffffffffffffffffffffffffffffffffff82169050919050565b600080fd5b7f4f776e61626c653a206e6577206f776e657220697320746865207a65726f206160008201527f6464726573730000000000000000000000000000000000000000000000000000602082015250565b7f4f776e61626c653a2063616c6c6572206973206e6f7420746865206f776e6572600082015250565b6200057081620004a0565b81146200057c57600080fd5b50565b6200058a81620004b4565b81146200059657600080fd5b50565b60805160601c60a05160601c6113c8620005da6000396000818161040701526104870152600081816103b6015281816104a9015261085f01526113c86000f3fe608060405234801561001057600080fd5b50600436106100ea5760003560e01c806380faa57d1161008c578063c910d95011610066578063c910d950146101f1578063d6f192621461020f578063f2fde38b1461022d578063f7c618c114610249576100ea565b806380faa57d146101975780638da5cb5b146101b5578063c8f33c91146101d3576100ea565b80633ccfd60b116100c85780633ccfd60b146101475780636e9a204b14610151578063715018a61461016f5780637b0a47ee14610179576100ea565b80630e807056146100ef5780631be052891461010b5780632ec939f914610129575b600080fd5b61010960048036038101906101049190610cb7565b610267565b005b6101136103fe565b6040516101209190610f99565b60405180910390f35b610131610405565b60405161013e9190610e41565b60405180910390f35b61014f610429565b005b6101596104f0565b6040516101669190610f99565b60405180910390f35b6101776104f6565b005b610181610630565b60405161018e9190610f99565b60405180910390f35b61019f610636565b6040516101ac9190610f99565b60405180910390f35b6101bd610649565b6040516101ca9190610e41565b60405180910390f35b6101db610672565b6040516101e89190610f99565b60405180910390f35b6101f9610678565b6040516102069190610f99565b60405180910390f35b61021761067e565b6040516102249190610f99565b60405180910390f35b61024760048036038101906102429190610c5d565b6106b4565b005b61025161085d565b60405161025e9190610ebc565b60405180910390f35b61026f610881565b73ffffffffffffffffffffffffffffffffffffffff1661028d610649565b73ffffffffffffffffffffffffffffffffffffffff16146102e3576040517f08c379a00000000000000000000000000000000000000000000000000000000081526004016102da90610f39565b60405180910390fd5b6102eb61067e565b60038190555060015442106103145762093a8081610309919061103c565b60028190555061035b565b60004260015461032491906110c7565b9050600060025482610336919061106d565b905062093a8081846103489190610fe6565b610352919061103c565b60028190555050505b62093a804261036a9190610fe6565b600181905550426004819055507fb32714d475c9d2f568d4ff24e88d0056b93256b5a04fbdb53a57f26bb765fbed816040516103a69190610f99565b60405180910390a16103fb3330837f000000000000000000000000000000000000000000000000000000000000000073ffffffffffffffffffffffffffffffffffffffff16610889909392919063ffffffff16565b50565b62093a8081565b7f000000000000000000000000000000000000000000000000000000000000000081565b600061043361067e565b90506000600381905550610445610636565b6004819055507f150a6ec0e6f4e9ddcaaaa1674f157d91165a42d60653016f87a9fc870a39f0508160405161047a9190610f99565b60405180910390a16104ed7f0000000000000000000000000000000000000000000000000000000000000000827f000000000000000000000000000000000000000000000000000000000000000073ffffffffffffffffffffffffffffffffffffffff166109129092919063ffffffff16565b50565b60035481565b6104fe610881565b73ffffffffffffffffffffffffffffffffffffffff1661051c610649565b73ffffffffffffffffffffffffffffffffffffffff1614610572576040517f08c379a000000000000000000000000000000000000000000000000000000000815260040161056990610f39565b60405180910390fd5b600073ffffffffffffffffffffffffffffffffffffffff1660008054906101000a900473ffffffffffffffffffffffffffffffffffffffff1673ffffffffffffffffffffffffffffffffffffffff167f8be0079c531659141344cd1fd0a4f28419497f9722a3daafe3b4186f6b6457e060405160405180910390a360008060006101000a81548173ffffffffffffffffffffffffffffffffffffffff021916908373ffffffffffffffffffffffffffffffffffffffff160217905550565b60025481565b600061064442600154610998565b905090565b60008060009054906101000a900473ffffffffffffffffffffffffffffffffffffffff16905090565b60045481565b60015481565b600060025460045461068e610636565b61069891906110c7565b6106a2919061106d565b6003546106af9190610fe6565b905090565b6106bc610881565b73ffffffffffffffffffffffffffffffffffffffff166106da610649565b73ffffffffffffffffffffffffffffffffffffffff1614610730576040517f08c379a000000000000000000000000000000000000000000000000000000000815260040161072790610f39565b60405180910390fd5b600073ffffffffffffffffffffffffffffffffffffffff168173ffffffffffffffffffffffffffffffffffffffff1614156107a0576040517f08c379a000000000000000000000000000000000000000000000000000000000815260040161079790610ef9565b60405180910390fd5b8073ffffffffffffffffffffffffffffffffffffffff1660008054906101000a900473ffffffffffffffffffffffffffffffffffffffff1673ffffffffffffffffffffffffffffffffffffffff167f8be0079c531659141344cd1fd0a4f28419497f9722a3daafe3b4186f6b6457e060405160405180910390a3806000806101000a81548173ffffffffffffffffffffffffffffffffffffffff021916908373ffffffffffffffffffffffffffffffffffffffff16021790555050565b7f000000000000000000000000000000000000000000000000000000000000000081565b600033905090565b61090c846323b872dd60e01b8585856040516024016108aa93929190610e5c565b604051602081830303815290604052907bffffffffffffffffffffffffffffffffffffffffffffffffffffffff19166020820180517bffffffffffffffffffffffffffffffffffffffffffffffffffffffff83818316178352505050506109b1565b50505050565b6109938363a9059cbb60e01b8484604051602401610931929190610e93565b604051602081830303815290604052907bffffffffffffffffffffffffffffffffffffffffffffffffffffffff19166020820180517bffffffffffffffffffffffffffffffffffffffffffffffffffffffff83818316178352505050506109b1565b505050565b60008183106109a757816109a9565b825b905092915050565b6000610a13826040518060400160405280602081526020017f5361666545524332303a206c6f772d6c6576656c2063616c6c206661696c65648152508573ffffffffffffffffffffffffffffffffffffffff16610a789092919063ffffffff16565b9050600081511115610a735780806020019051810190610a339190610c8a565b610a72576040517f08c379a0000000000000000000000000000000000000000000000000000000008152600401610a6990610f79565b60405180910390fd5b5b505050565b6060610a878484600085610a90565b90509392505050565b606082471015610ad5576040517f08c379a0000000000000000000000000000000000000000000000000000000008152600401610acc90610f19565b60405180910390fd5b610ade85610ba4565b610b1d576040517f08c379a0000000000000000000000000000000000000000000000000000000008152600401610b1490610f59565b60405180910390fd5b6000808673ffffffffffffffffffffffffffffffffffffffff168587604051610b469190610e2a565b60006040518083038185875af1925050503d8060008114610b83576040519150601f19603f3d011682016040523d82523d6000602084013e610b88565b606091505b5091509150610b98828286610bb7565b92505050949350505050565b600080823b905060008111915050919050565b60608315610bc757829050610c17565b600083511115610bda5782518084602001fd5b816040517f08c379a0000000000000000000000000000000000000000000000000000000008152600401610c0e9190610ed7565b60405180910390fd5b9392505050565b600081359050610c2d8161134d565b92915050565b600081519050610c4281611364565b92915050565b600081359050610c578161137b565b92915050565b600060208284031215610c7357610c726111f8565b5b6000610c8184828501610c1e565b91505092915050565b600060208284031215610ca057610c9f6111f8565b5b6000610cae84828501610c33565b91505092915050565b600060208284031215610ccd57610ccc6111f8565b5b6000610cdb84828501610c48565b91505092915050565b610ced816110fb565b82525050565b6000610cfe82610fb4565b610d088185610fca565b9350610d18818560208601611167565b80840191505092915050565b610d2d81611143565b82525050565b6000610d3e82610fbf565b610d488185610fd5565b9350610d58818560208601611167565b610d61816111fd565b840191505092915050565b6000610d79602683610fd5565b9150610d848261120e565b604082019050919050565b6000610d9c602683610fd5565b9150610da78261125d565b604082019050919050565b6000610dbf602083610fd5565b9150610dca826112ac565b602082019050919050565b6000610de2601d83610fd5565b9150610ded826112d5565b602082019050919050565b6000610e05602a83610fd5565b9150610e10826112fe565b604082019050919050565b610e2481611139565b82525050565b6000610e368284610cf3565b915081905092915050565b6000602082019050610e566000830184610ce4565b92915050565b6000606082019050610e716000830186610ce4565b610e7e6020830185610ce4565b610e8b6040830184610e1b565b949350505050565b6000604082019050610ea86000830185610ce4565b610eb56020830184610e1b565b9392505050565b6000602082019050610ed16000830184610d24565b92915050565b60006020820190508181036000830152610ef18184610d33565b905092915050565b60006020820190508181036000830152610f1281610d6c565b9050919050565b60006020820190508181036000830152610f3281610d8f565b9050919050565b60006020820190508181036000830152610f5281610db2565b9050919050565b60006020820190508181036000830152610f7281610dd5565b9050919050565b60006020820190508181036000830152610f9281610df8565b9050919050565b6000602082019050610fae6000830184610e1b565b92915050565b600081519050919050565b600081519050919050565b600081905092915050565b600082825260208201905092915050565b6000610ff182611139565b9150610ffc83611139565b9250827fffffffffffffffffffffffffffffffffffffffffffffffffffffffffffffffff038211156110315761103061119a565b5b828201905092915050565b600061104782611139565b915061105283611139565b925082611062576110616111c9565b5b828204905092915050565b600061107882611139565b915061108383611139565b9250817fffffffffffffffffffffffffffffffffffffffffffffffffffffffffffffffff04831182151516156110bc576110bb61119a565b5b828202905092915050565b60006110d282611139565b91506110dd83611139565b9250828210156110f0576110ef61119a565b5b828203905092915050565b600061110682611119565b9050919050565b60008115159050919050565b600073ffffffffffffffffffffffffffffffffffffffff82169050919050565b6000819050919050565b600061114e82611155565b9050919050565b600061116082611119565b9050919050565b60005b8381101561118557808201518184015260208101905061116a565b83811115611194576000848401525b50505050565b7f4e487b7100000000000000000000000000000000000000000000000000000000600052601160045260246000fd5b7f4e487b7100000000000000000000000000000000000000000000000000000000600052601260045260246000fd5b600080fd5b6000601f19601f8301169050919050565b7f4f776e61626c653a206e6577206f776e657220697320746865207a65726f206160008201527f6464726573730000000000000000000000000000000000000000000000000000602082015250565b7f416464726573733a20696e73756666696369656e742062616c616e636520666f60008201527f722063616c6c0000000000000000000000000000000000000000000000000000602082015250565b7f4f776e61626c653a2063616c6c6572206973206e6f7420746865206f776e6572600082015250565b7f416464726573733a2063616c6c20746f206e6f6e2d636f6e7472616374000000600082015250565b7f5361666545524332303a204552433230206f7065726174696f6e20646964206e60008201527f6f74207375636365656400000000000000000000000000000000000000000000602082015250565b611356816110fb565b811461136157600080fd5b50565b61136d8161110d565b811461137857600080fd5b50565b61138481611139565b811461138f57600080fd5b5056fea26469706673582212205c64a963c0be169cfb3e8a9644a17aa3d087ba29fd8c3ce7e6e250c5cc9807d464736f6c63430008050033",
  "devdoc": {
    "kind": "dev",
    "methods": {
      "beginWithdrawalDelayUpdate(uint256)": {
        "params": {
          "_newWithdrawalDelay": "The new value of withdrawal delay"
        }
      },
      "beginWithdrawalTimeoutUpdate(uint256)": {
        "params": {
          "_newWithdrawalTimeout": "The new value of the withdrawal timeout"
        }
      },
      "completeWithdrawal(address)": {
        "returns": {
          "_0": "The amount of collateral withdrawn"
        }
      },
      "deposit(uint256)": {
        "details": "Before calling this function, collateral token needs to have the      required amount accepted to transfer to the asset pool.",
        "params": {
          "amountToDeposit": "Collateral tokens amount that a user deposits to                        the asset pool"
        },
        "returns": {
          "_0": "The amount of minted underwriter tokens"
        }
      },
      "depositWithMin(uint256,uint256)": {
        "details": "Before calling this function, collateral token needs to have the      required amount accepted to transfer to the asset pool.",
        "params": {
          "amountToDeposit": "Collateral tokens amount that a user deposits to                        the asset pool",
          "minAmountToMint": "Underwriter minimal tokens amount that a user                        expects to receive in exchange for the deposited                        collateral tokens"
        },
        "returns": {
          "_0": "The amount of minted underwriter tokens"
        }
      },
      "getRemainingWithdrawalDelayUpdateTime()": {
        "returns": {
          "_0": "The time left until withdrawal delay update can be finalized"
        }
      },
      "getRemainingWithdrawalTimeoutUpdateTime()": {
        "returns": {
          "_0": "The time left until withdrawal timeout update can be finalized"
        }
      },
      "grantShares(address,uint256)": {
        "details": "Can be called only by the contract owner.",
        "params": {
          "covAmount": "Amount of the underwriter tokens which should be minted",
          "recipient": "Address of the underwriter tokens recipient"
        }
      },
      "initiateWithdrawal(uint256)": {
        "details": "Before calling this function, underwriter token needs to have the      required amount accepted to transfer to the asset pool."
      },
      "owner()": {
        "details": "Returns the address of the current owner."
      },
      "receiveApproval(address,uint256,address,bytes)": {
        "details": "This function is a shortcut for approve + deposit."
      },
      "renounceOwnership()": {
        "details": "Leaves the contract without owner. It will not be possible to call `onlyOwner` functions anymore. Can only be called by the current owner. NOTE: Renouncing ownership will leave the contract without an owner, thereby removing any functionality that is only available to the owner."
      },
      "totalValue()": {
        "returns": {
          "_0": "The total value of asset pool in collateral token."
        }
      },
      "transferOwnership(address)": {
        "details": "Transfers ownership of the contract to a new account (`newOwner`). Can only be called by the current owner."
      },
      "upgradeToNewAssetPool(uint256,address)": {
        "params": {
          "_newAssetPool": "New Asset Pool address to check validity with the one                      that was approved by the governance",
          "covAmount": "Amount of underwriter tokens used to calculate collateral                  tokens which are transferred to a new asset pool"
        }
      },
      "withdrawalGovernanceDelay()": {
        "returns": {
          "_0": "The withdrawal governance delay in seconds"
        }
      }
    },
    "title": "Asset Pool",
    "version": 1
  },
  "userdoc": {
    "kind": "user",
    "methods": {
      "approveNewAssetPoolUpgrade(address)": {
        "notice": "Allows governance to set a new asset pool so the underwriters         can move their collateral tokens to a new asset pool without         having to wait for the withdrawal delay."
      },
      "beginWithdrawalDelayUpdate(uint256)": {
        "notice": "Lets the contract owner to begin an update of withdrawal delay         parameter value. Withdrawal delay is the time it takes the         underwriter to withdraw their collateral and rewards from the         pool. This is the time that needs to pass between initiating and         completing the withdrawal. The change needs to be finalized with         a call to finalizeWithdrawalDelayUpdate after the required         governance delay passes. It is up to the contract owner to         decide what the withdrawal delay value should be but it should         be long enough so that the possibility of having free-riding         underwriters escaping from a potential coverage claim by         withdrawing their positions from the pool is negligible."
      },
      "beginWithdrawalTimeoutUpdate(uint256)": {
        "notice": "Lets the contract owner to begin an update of withdrawal timeout         parameter value. The withdrawal timeout is the time the         underwriter has - after the withdrawal delay passed - to         complete the withdrawal. The change needs to be finalized with         a call to finalizeWithdrawalTimeoutUpdate after the required         governance delay passes. It is up to the contract owner to         decide what the withdrawal timeout value should be but it should         be short enough so that the time of free-riding by being able to         immediately escape from the claim is minimal and long enough so         that honest underwriters have a possibility to finalize the         withdrawal. It is all about the right proportions with         a relation to withdrawal delay value."
      },
      "cancelNewAssetPoolUpgrade()": {
        "notice": "Allows governance to cancel already approved new asset pool         in case of some misconfiguration."
      },
      "claim(address,uint256)": {
        "notice": "Allows the coverage pool to demand coverage from the asset hold         by this pool and send it to the provided recipient address."
      },
      "completeWithdrawal(address)": {
        "notice": "Completes the previously initiated withdrawal for the         underwriter. Anyone can complete the withdrawal for the         underwriter. The withdrawal has to be completed before the         withdrawal timeout elapses. Otherwise, the withdrawal has to         be initiated again and the underwriter has to wait for the         entire withdrawal delay again before being able to complete         the withdrawal."
      },
      "deposit(uint256)": {
        "notice": "Accepts the given amount of collateral token as a deposit and         mints underwriter tokens representing pool's ownership."
      },
      "depositWithMin(uint256,uint256)": {
        "notice": "Accepts the given amount of collateral token as a deposit and         mints at least a minAmountToMint underwriter tokens representing         pool's ownership."
      },
      "finalizeWithdrawalDelayUpdate()": {
        "notice": "Lets the contract owner to finalize an update of withdrawal         delay parameter value. This call has to be preceded with         a call to beginWithdrawalDelayUpdate and the governance delay         has to pass."
      },
      "finalizeWithdrawalTimeoutUpdate()": {
        "notice": "Lets the contract owner to finalize an update of withdrawal         timeout parameter value. This call has to be preceded with         a call to beginWithdrawalTimeoutUpdate and the governance delay         has to pass."
      },
      "getRemainingWithdrawalDelayUpdateTime()": {
        "notice": "Returns the remaining time that has to pass before the contract         owner will be able to finalize withdrawal delay update.         Bear in mind the contract owner may decide to wait longer and         this value is just an absolute minimum."
      },
      "getRemainingWithdrawalTimeoutUpdateTime()": {
        "notice": "Returns the remaining time that has to pass before the contract         owner will be able to finalize withdrawal timeout update.         Bear in mind the contract owner may decide to wait longer and         this value is just an absolute minimum."
      },
      "grantShares(address,uint256)": {
        "notice": "Grants pool shares by minting a given amount of the underwriter         tokens for the recipient address. In result, the recipient         obtains part of the pool ownership without depositing any         collateral tokens. Shares are usually granted for notifiers         reporting about various contract state changes."
      },
      "initiateWithdrawal(uint256)": {
        "notice": "Initiates the withdrawal of collateral and rewards from the         pool. Must be followed with completeWithdrawal call after the         withdrawal delay passes. Accepts the amount of underwriter         tokens representing the share of the pool that should be         withdrawn. Can be called multiple times increasing the pool share         to withdraw and resetting the withdrawal initiated timestamp for         each call. Can be called with 0 covAmount to reset the         withdrawal initiated timestamp if the underwriter has a pending         withdrawal. In practice 0 covAmount should be used only to         initiate the withdrawal again in case one did not complete the         withdrawal before the withdrawal timeout elapsed."
      },
      "receiveApproval(address,uint256,address,bytes)": {
        "notice": "Accepts the given amount of collateral token as a deposit and         mints underwriter tokens representing pool's ownership.         Optional data in extraData may include a minimal amount of         underwriter tokens expected to be minted for a depositor. There         are cases when an amount of minted tokens matters for a         depositor, as tokens might be used in third party exchanges."
      },
      "totalValue()": {
        "notice": "Returns the current collateral token balance of the asset pool         plus the reward amount (in collateral token) earned by the asset         pool and not yet withdrawn to the asset pool."
      },
      "upgradeToNewAssetPool(uint256,address)": {
        "notice": "Transfers collateral tokens to a new Asset Pool which previously         was approved by the governance. Upgrade does not have to obey         withdrawal delay.         Old underwriter tokens are burned in favor of new tokens minted         in a new Asset Pool. New tokens are sent directly to the         underwriter from a new Asset Pool."
      },
      "withdrawalDelay()": {
        "notice": "The time it takes the underwriter to withdraw their collateral         and rewards from the pool. This is the time that needs to pass         between initiating and completing the withdrawal. During that         time, underwriter is still earning rewards and their share of         the pool is still a subject of a possible coverage claim."
      },
      "withdrawalGovernanceDelay()": {
        "notice": "The time it takes to initiate and complete the withdrawal from         the pool plus 2 days to make a decision. This governance delay         should be used for all changes directly affecting underwriter         positions. This time is a minimum and the governance may choose         to wait longer before finalizing the update."
      },
      "withdrawalTimeout()": {
        "notice": "The time the underwriter has after the withdrawal delay passed         to complete the withdrawal. During that time, underwriter is         still earning rewards and their share of the pool is still         a subject of a possible coverage claim.         After the withdrawal timeout elapses, tokens stay in the pool         and the underwriter has to initiate the withdrawal again and         wait for the full withdrawal delay to complete the withdrawal."
      }
    },
    "notice": "Asset pool is a component of a Coverage Pool. Asset Pool         accepts a single ERC20 token as collateral, and returns an         underwriter token. For example, an asset pool might accept deposits         in KEEP in return for covKEEP underwriter tokens. Underwriter tokens         represent an ownership share in the underlying collateral of the         Asset Pool.",
    "version": 1
  },
  "storageLayout": {
    "storage": [
      {
        "astId": 7,
        "contract": "contracts/AssetPool.sol:AssetPool",
        "label": "_owner",
        "offset": 0,
        "slot": "0",
        "type": "t_address"
      },
      {
        "astId": 1674,
        "contract": "contracts/AssetPool.sol:AssetPool",
        "label": "newAssetPool",
        "offset": 0,
        "slot": "1",
        "type": "t_contract(IAssetPoolUpgrade)5938"
      },
      {
        "astId": 1678,
        "contract": "contracts/AssetPool.sol:AssetPool",
        "label": "withdrawalDelay",
        "offset": 0,
        "slot": "2",
        "type": "t_uint256"
      },
      {
        "astId": 1680,
        "contract": "contracts/AssetPool.sol:AssetPool",
        "label": "newWithdrawalDelay",
        "offset": 0,
        "slot": "3",
        "type": "t_uint256"
      },
      {
        "astId": 1682,
        "contract": "contracts/AssetPool.sol:AssetPool",
        "label": "withdrawalDelayChangeInitiated",
        "offset": 0,
        "slot": "4",
        "type": "t_uint256"
      },
      {
        "astId": 1686,
        "contract": "contracts/AssetPool.sol:AssetPool",
        "label": "withdrawalTimeout",
        "offset": 0,
        "slot": "5",
        "type": "t_uint256"
      },
      {
        "astId": 1688,
        "contract": "contracts/AssetPool.sol:AssetPool",
        "label": "newWithdrawalTimeout",
        "offset": 0,
        "slot": "6",
        "type": "t_uint256"
      },
      {
        "astId": 1690,
        "contract": "contracts/AssetPool.sol:AssetPool",
        "label": "withdrawalTimeoutChangeInitiated",
        "offset": 0,
        "slot": "7",
        "type": "t_uint256"
      },
      {
        "astId": 1694,
        "contract": "contracts/AssetPool.sol:AssetPool",
        "label": "withdrawalInitiatedTimestamp",
        "offset": 0,
        "slot": "8",
        "type": "t_mapping(t_address,t_uint256)"
      },
      {
        "astId": 1698,
        "contract": "contracts/AssetPool.sol:AssetPool",
        "label": "pendingWithdrawal",
        "offset": 0,
        "slot": "9",
        "type": "t_mapping(t_address,t_uint256)"
      }
    ],
    "types": {
      "t_address": {
        "encoding": "inplace",
        "label": "address",
        "numberOfBytes": "20"
      },
      "t_contract(IAssetPoolUpgrade)5938": {
        "encoding": "inplace",
        "label": "contract IAssetPoolUpgrade",
        "numberOfBytes": "20"
      },
      "t_mapping(t_address,t_uint256)": {
        "encoding": "mapping",
        "key": "t_address",
        "label": "mapping(address => uint256)",
        "numberOfBytes": "32",
        "value": "t_uint256"
      },
      "t_uint256": {
        "encoding": "inplace",
        "label": "uint256",
        "numberOfBytes": "32"
      }
    }
  }
}