{
  "address": "0x9D3267AA3BdFCeDD46221D54F8CB08Bf3E1717Aa",
  "abi": [
    {
      "inputs": [
        {
          "internalType": "contract IERC20",
          "name": "_rewardToken",
          "type": "address"
        },
        {
          "internalType": "address",
          "name": "_assetPool",
          "type": "address"
        },
        {
          "internalType": "address",
          "name": "owner",
          "type": "address"
        }
      ],
      "stateMutability": "nonpayable",
      "type": "constructor"
    },
    {
      "anonymous": false,
      "inputs": [
        {
          "indexed": true,
          "internalType": "address",
          "name": "previousOwner",
          "type": "address"
        },
        {
          "indexed": true,
          "internalType": "address",
          "name": "newOwner",
          "type": "address"
        }
      ],
      "name": "OwnershipTransferred",
      "type": "event"
    },
    {
      "anonymous": false,
      "inputs": [
        {
          "indexed": false,
          "internalType": "uint256",
          "name": "amount",
          "type": "uint256"
        }
      ],
      "name": "RewardToppedUp",
      "type": "event"
    },
    {
      "anonymous": false,
      "inputs": [
        {
          "indexed": false,
          "internalType": "uint256",
          "name": "amount",
          "type": "uint256"
        }
      ],
      "name": "RewardWithdrawn",
      "type": "event"
    },
    {
      "inputs": [],
      "name": "DURATION",
      "outputs": [
        {
          "internalType": "uint256",
          "name": "",
          "type": "uint256"
        }
      ],
      "stateMutability": "view",
      "type": "function"
    },
    {
      "inputs": [],
      "name": "assetPool",
      "outputs": [
        {
          "internalType": "address",
          "name": "",
          "type": "address"
        }
      ],
      "stateMutability": "view",
      "type": "function"
    },
    {
      "inputs": [],
      "name": "earned",
      "outputs": [
        {
          "internalType": "uint256",
          "name": "",
          "type": "uint256"
        }
      ],
      "stateMutability": "view",
      "type": "function"
    },
    {
      "inputs": [],
      "name": "intervalFinish",
      "outputs": [
        {
          "internalType": "uint256",
          "name": "",
          "type": "uint256"
        }
      ],
      "stateMutability": "view",
      "type": "function"
    },
    {
      "inputs": [],
      "name": "lastTimeRewardApplicable",
      "outputs": [
        {
          "internalType": "uint256",
          "name": "",
          "type": "uint256"
        }
      ],
      "stateMutability": "view",
      "type": "function"
    },
    {
      "inputs": [],
      "name": "lastUpdateTime",
      "outputs": [
        {
          "internalType": "uint256",
          "name": "",
          "type": "uint256"
        }
      ],
      "stateMutability": "view",
      "type": "function"
    },
    {
      "inputs": [],
      "name": "owner",
      "outputs": [
        {
          "internalType": "address",
          "name": "",
          "type": "address"
        }
      ],
      "stateMutability": "view",
      "type": "function"
    },
    {
      "inputs": [],
      "name": "renounceOwnership",
      "outputs": [],
      "stateMutability": "nonpayable",
      "type": "function"
    },
    {
      "inputs": [],
      "name": "rewardAccumulated",
      "outputs": [
        {
          "internalType": "uint256",
          "name": "",
          "type": "uint256"
        }
      ],
      "stateMutability": "view",
      "type": "function"
    },
    {
      "inputs": [],
      "name": "rewardRate",
      "outputs": [
        {
          "internalType": "uint256",
          "name": "",
          "type": "uint256"
        }
      ],
      "stateMutability": "view",
      "type": "function"
    },
    {
      "inputs": [],
      "name": "rewardToken",
      "outputs": [
        {
          "internalType": "contract IERC20",
          "name": "",
          "type": "address"
        }
      ],
      "stateMutability": "view",
      "type": "function"
    },
    {
      "inputs": [
        {
          "internalType": "uint256",
          "name": "reward",
          "type": "uint256"
        }
      ],
      "name": "topUpReward",
      "outputs": [],
      "stateMutability": "nonpayable",
      "type": "function"
    },
    {
      "inputs": [
        {
          "internalType": "address",
          "name": "newOwner",
          "type": "address"
        }
      ],
      "name": "transferOwnership",
      "outputs": [],
      "stateMutability": "nonpayable",
      "type": "function"
    },
    {
      "inputs": [],
      "name": "withdraw",
      "outputs": [],
      "stateMutability": "nonpayable",
      "type": "function"
    }
  ],
  "transactionHash": "0x41f2a02b3abd54dd25e51350b338a45d722e2dc90656948df46e7630883442ba",
  "bytecode": "0x60c060405260006001556000600255600060035560006004553480156200002557600080fd5b50604051620019a2380380620019a283398181016040528101906200004b9190620003a1565b60006200005d6200018360201b60201c565b9050806000806101000a81548173ffffffffffffffffffffffffffffffffffffffff021916908373ffffffffffffffffffffffffffffffffffffffff1602179055508073ffffffffffffffffffffffffffffffffffffffff16600073ffffffffffffffffffffffffffffffffffffffff167f8be0079c531659141344cd1fd0a4f28419497f9722a3daafe3b4186f6b6457e060405160405180910390a3508273ffffffffffffffffffffffffffffffffffffffff1660808173ffffffffffffffffffffffffffffffffffffffff1660601b815250508173ffffffffffffffffffffffffffffffffffffffff1660a08173ffffffffffffffffffffffffffffffffffffffff1660601b815250506200017a816200018b60201b60201c565b50505062000599565b600033905090565b6200019b6200018360201b60201c565b73ffffffffffffffffffffffffffffffffffffffff16620001c16200034a60201b60201c565b73ffffffffffffffffffffffffffffffffffffffff16146200021a576040517f08c379a000000000000000000000000000000000000000000000000000000000815260040162000211906200046d565b60405180910390fd5b600073ffffffffffffffffffffffffffffffffffffffff168173ffffffffffffffffffffffffffffffffffffffff1614156200028d576040517f08c379a000000000000000000000000000000000000000000000000000000000815260040162000284906200044b565b60405180910390fd5b8073ffffffffffffffffffffffffffffffffffffffff1660008054906101000a900473ffffffffffffffffffffffffffffffffffffffff1673ffffffffffffffffffffffffffffffffffffffff167f8be0079c531659141344cd1fd0a4f28419497f9722a3daafe3b4186f6b6457e060405160405180910390a3806000806101000a81548173ffffffffffffffffffffffffffffffffffffffff021916908373ffffffffffffffffffffffffffffffffffffffff16021790555050565b60008060009054906101000a900473ffffffffffffffffffffffffffffffffffffffff16905090565b600081519050620003848162000565565b92915050565b6000815190506200039b816200057f565b92915050565b600080600060608486031215620003bd57620003bc620004e8565b5b6000620003cd868287016200038a565b9350506020620003e08682870162000373565b9250506040620003f38682870162000373565b9150509250925092565b60006200040c6026836200048f565b91506200041982620004ed565b604082019050919050565b6000620004336020836200048f565b915062000440826200053c565b602082019050919050565b600060208201905081810360008301526200046681620003fd565b9050919050565b60006020820190508181036000830152620004888162000424565b9050919050565b600082825260208201905092915050565b6000620004ad82620004c8565b9050919050565b6000620004c182620004a0565b9050919050565b600073ffffffffffffffffffffffffffffffffffffffff82169050919050565b600080fd5b7f4f776e61626c653a206e6577206f776e657220697320746865207a65726f206160008201527f6464726573730000000000000000000000000000000000000000000000000000602082015250565b7f4f776e61626c653a2063616c6c6572206973206e6f7420746865206f776e6572600082015250565b6200057081620004a0565b81146200057c57600080fd5b50565b6200058a81620004b4565b81146200059657600080fd5b50565b60805160601c60a05160601c6113c8620005da6000396000818161040701526104870152600081816103b6015281816104a9015261085f01526113c86000f3fe608060405234801561001057600080fd5b50600436106100ea5760003560e01c806380faa57d1161008c578063c910d95011610066578063c910d950146101f1578063d6f192621461020f578063f2fde38b1461022d578063f7c618c114610249576100ea565b806380faa57d146101975780638da5cb5b146101b5578063c8f33c91146101d3576100ea565b80633ccfd60b116100c85780633ccfd60b146101475780636e9a204b14610151578063715018a61461016f5780637b0a47ee14610179576100ea565b80630e807056146100ef5780631be052891461010b5780632ec939f914610129575b600080fd5b61010960048036038101906101049190610cb7565b610267565b005b6101136103fe565b6040516101209190610f99565b60405180910390f35b610131610405565b60405161013e9190610e41565b60405180910390f35b61014f610429565b005b6101596104f0565b6040516101669190610f99565b60405180910390f35b6101776104f6565b005b610181610630565b60405161018e9190610f99565b60405180910390f35b61019f610636565b6040516101ac9190610f99565b60405180910390f35b6101bd610649565b6040516101ca9190610e41565b60405180910390f35b6101db610672565b6040516101e89190610f99565b60405180910390f35b6101f9610678565b6040516102069190610f99565b60405180910390f35b61021761067e565b6040516102249190610f99565b60405180910390f35b61024760048036038101906102429190610c5d565b6106b4565b005b61025161085d565b60405161025e9190610ebc565b60405180910390f35b61026f610881565b73ffffffffffffffffffffffffffffffffffffffff1661028d610649565b73ffffffffffffffffffffffffffffffffffffffff16146102e3576040517f08c379a00000000000000000000000000000000000000000000000000000000081526004016102da90610f39565b60405180910390fd5b6102eb61067e565b60038190555060015442106103145762093a8081610309919061103c565b60028190555061035b565b60004260015461032491906110c7565b9050600060025482610336919061106d565b905062093a8081846103489190610fe6565b610352919061103c565b60028190555050505b62093a804261036a9190610fe6565b600181905550426004819055507fb32714d475c9d2f568d4ff24e88d0056b93256b5a04fbdb53a57f26bb765fbed816040516103a69190610f99565b60405180910390a16103fb3330837f000000000000000000000000000000000000000000000000000000000000000073ffffffffffffffffffffffffffffffffffffffff16610889909392919063ffffffff16565b50565b62093a8081565b7f000000000000000000000000000000000000000000000000000000000000000081565b600061043361067e565b90506000600381905550610445610636565b6004819055507f150a6ec0e6f4e9ddcaaaa1674f157d91165a42d60653016f87a9fc870a39f0508160405161047a9190610f99565b60405180910390a16104ed7f0000000000000000000000000000000000000000000000000000000000000000827f000000000000000000000000000000000000000000000000000000000000000073ffffffffffffffffffffffffffffffffffffffff166109129092919063ffffffff16565b50565b60035481565b6104fe610881565b73ffffffffffffffffffffffffffffffffffffffff1661051c610649565b73ffffffffffffffffffffffffffffffffffffffff1614610572576040517f08c379a000000000000000000000000000000000000000000000000000000000815260040161056990610f39565b60405180910390fd5b600073ffffffffffffffffffffffffffffffffffffffff1660008054906101000a900473ffffffffffffffffffffffffffffffffffffffff1673ffffffffffffffffffffffffffffffffffffffff167f8be0079c531659141344cd1fd0a4f28419497f9722a3daafe3b4186f6b6457e060405160405180910390a360008060006101000a81548173ffffffffffffffffffffffffffffffffffffffff021916908373ffffffffffffffffffffffffffffffffffffffff160217905550565b60025481565b600061064442600154610998565b905090565b60008060009054906101000a900473ffffffffffffffffffffffffffffffffffffffff16905090565b60045481565b60015481565b600060025460045461068e610636565b61069891906110c7565b6106a2919061106d565b6003546106af9190610fe6565b905090565b6106bc610881565b73ffffffffffffffffffffffffffffffffffffffff166106da610649565b73ffffffffffffffffffffffffffffffffffffffff1614610730576040517f08c379a000000000000000000000000000000000000000000000000000000000815260040161072790610f39565b60405180910390fd5b600073ffffffffffffffffffffffffffffffffffffffff168173ffffffffffffffffffffffffffffffffffffffff1614156107a0576040517f08c379a000000000000000000000000000000000000000000000000000000000815260040161079790610ef9565b60405180910390fd5b8073ffffffffffffffffffffffffffffffffffffffff1660008054906101000a900473ffffffffffffffffffffffffffffffffffffffff1673ffffffffffffffffffffffffffffffffffffffff167f8be0079c531659141344cd1fd0a4f28419497f9722a3daafe3b4186f6b6457e060405160405180910390a3806000806101000a81548173ffffffffffffffffffffffffffffffffffffffff021916908373ffffffffffffffffffffffffffffffffffffffff16021790555050565b7f000000000000000000000000000000000000000000000000000000000000000081565b600033905090565b61090c846323b872dd60e01b8585856040516024016108aa93929190610e5c565b604051602081830303815290604052907bffffffffffffffffffffffffffffffffffffffffffffffffffffffff19166020820180517bffffffffffffffffffffffffffffffffffffffffffffffffffffffff83818316178352505050506109b1565b50505050565b6109938363a9059cbb60e01b8484604051602401610931929190610e93565b604051602081830303815290604052907bffffffffffffffffffffffffffffffffffffffffffffffffffffffff19166020820180517bffffffffffffffffffffffffffffffffffffffffffffffffffffffff83818316178352505050506109b1565b505050565b60008183106109a757816109a9565b825b905092915050565b6000610a13826040518060400160405280602081526020017f5361666545524332303a206c6f772d6c6576656c2063616c6c206661696c65648152508573ffffffffffffffffffffffffffffffffffffffff16610a789092919063ffffffff16565b9050600081511115610a735780806020019051810190610a339190610c8a565b610a72576040517f08c379a0000000000000000000000000000000000000000000000000000000008152600401610a6990610f79565b60405180910390fd5b5b505050565b6060610a878484600085610a90565b90509392505050565b606082471015610ad5576040517f08c379a0000000000000000000000000000000000000000000000000000000008152600401610acc90610f19565b60405180910390fd5b610ade85610ba4565b610b1d576040517f08c379a0000000000000000000000000000000000000000000000000000000008152600401610b1490610f59565b60405180910390fd5b6000808673ffffffffffffffffffffffffffffffffffffffff168587604051610b469190610e2a565b60006040518083038185875af1925050503d8060008114610b83576040519150601f19603f3d011682016040523d82523d6000602084013e610b88565b606091505b5091509150610b98828286610bb7565b92505050949350505050565b600080823b905060008111915050919050565b60608315610bc757829050610c17565b600083511115610bda5782518084602001fd5b816040517f08c379a0000000000000000000000000000000000000000000000000000000008152600401610c0e9190610ed7565b60405180910390fd5b9392505050565b600081359050610c2d8161134d565b92915050565b600081519050610c4281611364565b92915050565b600081359050610c578161137b565b92915050565b600060208284031215610c7357610c726111f8565b5b6000610c8184828501610c1e565b91505092915050565b600060208284031215610ca057610c9f6111f8565b5b6000610cae84828501610c33565b91505092915050565b600060208284031215610ccd57610ccc6111f8565b5b6000610cdb84828501610c48565b91505092915050565b610ced816110fb565b82525050565b6000610cfe82610fb4565b610d088185610fca565b9350610d18818560208601611167565b80840191505092915050565b610d2d81611143565b82525050565b6000610d3e82610fbf565b610d488185610fd5565b9350610d58818560208601611167565b610d61816111fd565b840191505092915050565b6000610d79602683610fd5565b9150610d848261120e565b604082019050919050565b6000610d9c602683610fd5565b9150610da78261125d565b604082019050919050565b6000610dbf602083610fd5565b9150610dca826112ac565b602082019050919050565b6000610de2601d83610fd5565b9150610ded826112d5565b602082019050919050565b6000610e05602a83610fd5565b9150610e10826112fe565b604082019050919050565b610e2481611139565b82525050565b6000610e368284610cf3565b915081905092915050565b6000602082019050610e566000830184610ce4565b92915050565b6000606082019050610e716000830186610ce4565b610e7e6020830185610ce4565b610e8b6040830184610e1b565b949350505050565b6000604082019050610ea86000830185610ce4565b610eb56020830184610e1b565b9392505050565b6000602082019050610ed16000830184610d24565b92915050565b60006020820190508181036000830152610ef18184610d33565b905092915050565b60006020820190508181036000830152610f1281610d6c565b9050919050565b60006020820190508181036000830152610f3281610d8f565b9050919050565b60006020820190508181036000830152610f5281610db2565b9050919050565b60006020820190508181036000830152610f7281610dd5565b9050919050565b60006020820190508181036000830152610f9281610df8565b9050919050565b6000602082019050610fae6000830184610e1b565b92915050565b600081519050919050565b600081519050919050565b600081905092915050565b600082825260208201905092915050565b6000610ff182611139565b9150610ffc83611139565b9250827fffffffffffffffffffffffffffffffffffffffffffffffffffffffffffffffff038211156110315761103061119a565b5b828201905092915050565b600061104782611139565b915061105283611139565b925082611062576110616111c9565b5b828204905092915050565b600061107882611139565b915061108383611139565b9250817fffffffffffffffffffffffffffffffffffffffffffffffffffffffffffffffff04831182151516156110bc576110bb61119a565b5b828202905092915050565b60006110d282611139565b91506110dd83611139565b9250828210156110f0576110ef61119a565b5b828203905092915050565b600061110682611119565b9050919050565b60008115159050919050565b600073ffffffffffffffffffffffffffffffffffffffff82169050919050565b6000819050919050565b600061114e82611155565b9050919050565b600061116082611119565b9050919050565b60005b8381101561118557808201518184015260208101905061116a565b83811115611194576000848401525b50505050565b7f4e487b7100000000000000000000000000000000000000000000000000000000600052601160045260246000fd5b7f4e487b7100000000000000000000000000000000000000000000000000000000600052601260045260246000fd5b600080fd5b6000601f19601f8301169050919050565b7f4f776e61626c653a206e6577206f776e657220697320746865207a65726f206160008201527f6464726573730000000000000000000000000000000000000000000000000000602082015250565b7f416464726573733a20696e73756666696369656e742062616c616e636520666f60008201527f722063616c6c0000000000000000000000000000000000000000000000000000602082015250565b7f4f776e61626c653a2063616c6c6572206973206e6f7420746865206f776e6572600082015250565b7f416464726573733a2063616c6c20746f206e6f6e2d636f6e7472616374000000600082015250565b7f5361666545524332303a204552433230206f7065726174696f6e20646964206e60008201527f6f74207375636365656400000000000000000000000000000000000000000000602082015250565b611356816110fb565b811461136157600080fd5b50565b61136d8161110d565b811461137857600080fd5b50565b61138481611139565b811461138f57600080fd5b5056fea26469706673582212205c64a963c0be169cfb3e8a9644a17aa3d087ba29fd8c3ce7e6e250c5cc9807d464736f6c63430008050033"
}